{
  "address": "0x2478674197f945F6Fd7cf0C4304c44a667685A78",
  "abi": [
    {
      "inputs": [],
      "stateMutability": "nonpayable",
      "type": "constructor"
    },
    {
      "anonymous": false,
      "inputs": [
        {
          "indexed": false,
          "internalType": "uint8",
          "name": "version",
          "type": "uint8"
        }
      ],
      "name": "Initialized",
      "type": "event"
    },
    {
      "anonymous": false,
      "inputs": [
        {
          "indexed": true,
          "internalType": "address",
          "name": "previousOwner",
          "type": "address"
        },
        {
          "indexed": true,
          "internalType": "address",
          "name": "newOwner",
          "type": "address"
        }
      ],
      "name": "OwnershipTransferred",
      "type": "event"
    },
    {
      "anonymous": false,
      "inputs": [
        {
          "indexed": false,
          "internalType": "address",
          "name": "account",
          "type": "address"
        }
      ],
      "name": "Paused",
      "type": "event"
    },
    {
      "anonymous": false,
      "inputs": [
        {
          "indexed": false,
          "internalType": "address",
          "name": "account",
          "type": "address"
        }
      ],
      "name": "Unpaused",
      "type": "event"
    },
    {
      "inputs": [
        {
          "internalType": "address",
          "name": "erc20ContractAddress",
          "type": "address"
        }
      ],
      "name": "initialize",
      "outputs": [],
      "stateMutability": "nonpayable",
      "type": "function"
    },
    {
      "inputs": [],
      "name": "owner",
      "outputs": [
        {
          "internalType": "address",
          "name": "",
          "type": "address"
        }
      ],
      "stateMutability": "view",
      "type": "function"
    },
    {
      "inputs": [],
      "name": "paused",
      "outputs": [
        {
          "internalType": "bool",
          "name": "",
          "type": "bool"
        }
      ],
      "stateMutability": "view",
      "type": "function"
    },
    {
      "inputs": [],
      "name": "renounceOwnership",
      "outputs": [],
      "stateMutability": "nonpayable",
      "type": "function"
    },
    {
      "inputs": [
        {
          "internalType": "address",
          "name": "newOwner",
          "type": "address"
        }
      ],
      "name": "transferOwnership",
      "outputs": [],
      "stateMutability": "nonpayable",
      "type": "function"
    },
    {
      "inputs": [
        {
          "components": [
            {
              "components": [
                {
                  "internalType": "uint256",
                  "name": "X",
                  "type": "uint256"
                },
                {
                  "internalType": "uint256",
                  "name": "Y",
                  "type": "uint256"
                }
              ],
              "internalType": "struct Pairing.G1Point",
              "name": "a",
              "type": "tuple"
            },
            {
              "components": [
                {
                  "internalType": "uint256[2]",
                  "name": "X",
                  "type": "uint256[2]"
                },
                {
                  "internalType": "uint256[2]",
                  "name": "Y",
                  "type": "uint256[2]"
                }
              ],
              "internalType": "struct Pairing.G2Point",
              "name": "b",
              "type": "tuple"
            },
            {
              "components": [
                {
                  "internalType": "uint256",
                  "name": "X",
                  "type": "uint256"
                },
                {
                  "internalType": "uint256",
                  "name": "Y",
                  "type": "uint256"
                }
              ],
              "internalType": "struct Pairing.G1Point",
              "name": "c",
              "type": "tuple"
            }
          ],
          "internalType": "struct Verifier.Proof",
          "name": "proof",
          "type": "tuple"
        }
      ],
      "name": "verifyTx",
      "outputs": [
        {
          "internalType": "bool",
          "name": "r",
          "type": "bool"
        }
      ],
      "stateMutability": "view",
      "type": "function"
    },
    {
      "inputs": [
        {
          "components": [
            {
              "components": [
                {
                  "internalType": "uint256",
                  "name": "X",
                  "type": "uint256"
                },
                {
                  "internalType": "uint256",
                  "name": "Y",
                  "type": "uint256"
                }
              ],
              "internalType": "struct Pairing.G1Point",
              "name": "a",
              "type": "tuple"
            },
            {
              "components": [
                {
                  "internalType": "uint256[2]",
                  "name": "X",
                  "type": "uint256[2]"
                },
                {
                  "internalType": "uint256[2]",
                  "name": "Y",
                  "type": "uint256[2]"
                }
              ],
              "internalType": "struct Pairing.G2Point",
              "name": "b",
              "type": "tuple"
            },
            {
              "components": [
                {
                  "internalType": "uint256",
                  "name": "X",
                  "type": "uint256"
                },
                {
                  "internalType": "uint256",
                  "name": "Y",
                  "type": "uint256"
                }
              ],
              "internalType": "struct Pairing.G1Point",
              "name": "c",
              "type": "tuple"
            }
          ],
          "internalType": "struct Verifier.Proof",
          "name": "proof",
          "type": "tuple"
        },
        {
          "internalType": "address",
          "name": "to",
          "type": "address"
        },
        {
          "internalType": "uint256",
          "name": "value",
          "type": "uint256"
        }
      ],
      "name": "zkTransfer",
      "outputs": [],
      "stateMutability": "nonpayable",
      "type": "function"
    }
  ],
  "transactionHash": "0xdbea939859cd3b2ea78587f3b43dcede08b915370c280ed42b6b64b756117210",
  "args": [],
  "numDeployments": 1,
  "solcInputHash": "f46af0e483c9214e80e8c6e3b6ba95e2",
  "bytecode": "0x608060405234801561001057600080fd5b5061001961001e565b6100de565b600054610100900460ff161561008a5760405162461bcd60e51b815260206004820152602760248201527f496e697469616c697a61626c653a20636f6e747261637420697320696e697469604482015266616c697a696e6760c81b606482015260840160405180910390fd5b60005460ff90811610156100dc576000805460ff191660ff9081179091556040519081527f7f26b83ff96e1f2b6a682f133852f6798a09c465da95921460cefb38474024989060200160405180910390a15b565b61179f806100ed6000396000f3fe608060405234801561001057600080fd5b506004361061007d5760003560e01c8063c4d66de81161005b578063c4d66de8146100c3578063f2fde38b146100d6578063f37b775a146100e9578063f6af0311146100fc57600080fd5b80635c975abb14610082578063715018a61461009e5780638da5cb5b146100a8575b600080fd5b60975460ff165b60405190151581526020015b60405180910390f35b6100a661010f565b005b6033546040516001600160a01b039091168152602001610095565b6100a66100d13660046113c5565b610123565b6100a66100e43660046113c5565b61025d565b6100a66100f736600461156b565b6102d6565b61008961010a3660046115ab565b610361565b610117610394565b61012160006103ee565b565b600054610100900460ff16158080156101435750600054600160ff909116105b8061015d5750303b15801561015d575060005460ff166001145b6101c55760405162461bcd60e51b815260206004820152602e60248201527f496e697469616c697a61626c653a20636f6e747261637420697320616c72656160448201526d191e481a5b9a5d1a585b1a5e995960921b60648201526084015b60405180910390fd5b6000805460ff1916600117905580156101e8576000805461ff0019166101001790555b60c980546001600160a01b0319166001600160a01b03841617905561020b610440565b61021361046f565b8015610259576000805461ff0019169055604051600181527f7f26b83ff96e1f2b6a682f133852f6798a09c465da95921460cefb38474024989060200160405180910390a15b5050565b610265610394565b6001600160a01b0381166102ca5760405162461bcd60e51b815260206004820152602660248201527f4f776e61626c653a206e6577206f776e657220697320746865207a65726f206160448201526564647265737360d01b60648201526084016101bc565b6102d3816103ee565b50565b6102de61049e565b6102e66104f7565b6102ef83610361565b61033b5760405162461bcd60e51b815260206004820152601d60248201527f4d757374206265206174206c65617374203138207965617273206f6c6400000060448201526064016101bc565b60c954610352906001600160a01b0316838361053d565b61035c6001606555565b505050565b6040805160008082526020820190925261037b818461058f565b60000361038b5750600192915050565b50600092915050565b6033546001600160a01b031633146101215760405162461bcd60e51b815260206004820181905260248201527f4f776e61626c653a2063616c6c6572206973206e6f7420746865206f776e657260448201526064016101bc565b603380546001600160a01b038381166001600160a01b0319831681179093556040519116919082907f8be0079c531659141344cd1fd0a4f28419497f9722a3daafe3b4186f6b6457e090600090a35050565b600054610100900460ff166104675760405162461bcd60e51b81526004016101bc906115c8565b610121610714565b600054610100900460ff166104965760405162461bcd60e51b81526004016101bc906115c8565b610121610744565b6002606554036104f05760405162461bcd60e51b815260206004820152601f60248201527f5265656e7472616e637947756172643a207265656e7472616e742063616c6c0060448201526064016101bc565b6002606555565b60975460ff16156101215760405162461bcd60e51b815260206004820152601060248201526f14185d5cd8589b194e881c185d5cd95960821b60448201526064016101bc565b604080516001600160a01b038416602482015260448082018490528251808303909101815260649091019091526020810180516001600160e01b031663a9059cbb60e01b17905261035c908490610777565b60007f30644e72e131a029b85045b68181585d2833e84879b9709143e1f593f0000001816105bb610849565b9050806080015151855160016105d19190611629565b146105db57600080fd5b604080518082019091526000808252602082018190525b8651811015610689578387828151811061060e5761060e611641565b60200260200101511061062057600080fd5b6106758261067085608001518460016106399190611629565b8151811061064957610649611641565b60200260200101518a858151811061066357610663611641565b6020026020010151610b6c565b610bca565b91508061068181611657565b9150506105f2565b506106b28183608001516000815181106106a5576106a5611641565b6020026020010151610bca565b90506106f6856000015186602001516106ca84610c20565b85604001516106dc8a60400151610c20565b606088015188516106ec90610c20565b8960200151610cbf565b610706576001935050505061070e565b600093505050505b92915050565b600054610100900460ff1661073b5760405162461bcd60e51b81526004016101bc906115c8565b610121336103ee565b600054610100900460ff1661076b5760405162461bcd60e51b81526004016101bc906115c8565b6097805460ff19169055565b60006107cc826040518060400160405280602081526020017f5361666545524332303a206c6f772d6c6576656c2063616c6c206661696c6564815250856001600160a01b0316610e4a9092919063ffffffff16565b80519091501561035c57808060200190518101906107ea9190611670565b61035c5760405162461bcd60e51b815260206004820152602a60248201527f5361666545524332303a204552433230206f7065726174696f6e20646964206e6044820152691bdd081cdd58d8d9595960b21b60648201526084016101bc565b6108516112bb565b6040805180820182527f1ad8443a0f3f93104120e493258957e78817ad2007b844661fad805f6cf84dd481527f06eb0e0b04c1c730cc03b1d26313e64e5756534b5aa77cf9d8234c9d52f6ddd76020808301919091529083528151608080820184527f16e15dfc44e2349f6bab6fb5cde994d2bd232ff3461e17784aaccbbf73a006ea8285019081527f2b44de902fe4c680345e5a4d6adaa7cf4d031c5f4d4852763f4a0a70300bd215606080850191909152908352845180860186527f1a69b0cacf618e88964a30623caf95a47478c191ab2e42d76ded9708aabc92e281527f188e1a5d2151a1dcb987b436c22110a956df48638d8bf471f9a7b46ba942b5c0818601528385015285840192909252835180820185527f1939636c4f56119cb270984532e95b0fc6e966c9924bb20c2b6655ad776738cd8186019081527f25309a131a67dce26d58fcd3686dc6c773632e0aa9a96dece0c24994351bbbe9828501528152845180860186527f166111becd660d7c03185b312a3dd81c3ee523b2a97372b6fbba2dfd8843cf5081527f2fa40dbc26b6d824c7e58417473a5fb57b156a52ff007462b425323f3a4f9181818601528185015285850152835190810184527f19e3ccfa362f34e67b08605cecd7ec1d2c27b519e0eff7c306f760dd88973abd8185019081527f0b464ae60871ef3483d580a2a99e3d367187648bc8deb9d9a1874ec4780a6456828401528152835180850185527f1eaaac36fcbb03c9cb0b09a6af369cbc407a08bd937260d7effea5f7009379d281527f1ae25ad6c26c5f7cc7f7ccf337278f2c40e4584c95ccf0d085c919d72a3fea9981850152818401529084015281516001808252818401909352919082015b6040805180820190915260008082526020820152815260200190600190039081610acb57505060808201908152604080518082019091527f0b8ffc337ebb0cde629a44718ef3fe40cc77a22d06f5b4f7ded6cacc82c0a90381527f02e7f94f827e2da66dd16c04a05c38f80eadfac4a8ceb03a355b54aeb3fa4bca602082015290518051600090610b5e57610b5e611641565b602002602001018190525090565b6040805180820190915260008082526020820152610b8861130c565b835181526020808501519082015260408101839052600060608360808460076107d05a03fa90508080610bb757fe5b5080610bc257600080fd5b505092915050565b6040805180820190915260008082526020820152610be661132a565b8351815260208085015181830152835160408301528301516060808301919091526000908360c08460066107d05a03fa90508080610bb757fe5b604080518082019091526000808252602082015281517f30644e72e131a029b85045b68181585d97816a916871ca8d3c208c16d87cfd4790158015610c6757506020830151155b15610c875750506040805180820190915260008082526020820152919050565b604051806040016040528084600001518152602001828560200151610cac9190611692565b610cb690846116b4565b90529392505050565b60408051600480825260a08201909252600091829190816020015b6040805180820190915260008082526020820152815260200190600190039081610cda57505060408051600480825260a0820190925291925060009190602082015b610d24611348565b815260200190600190039081610d1c5790505090508a82600081518110610d4d57610d4d611641565b60200260200101819052508882600181518110610d6c57610d6c611641565b60200260200101819052508682600281518110610d8b57610d8b611641565b60200260200101819052508482600381518110610daa57610daa611641565b60200260200101819052508981600081518110610dc957610dc9611641565b60200260200101819052508781600181518110610de857610de8611641565b60200260200101819052508581600281518110610e0757610e07611641565b60200260200101819052508381600381518110610e2657610e26611641565b6020026020010181905250610e3b8282610e61565b9b9a5050505050505050505050565b6060610e598484600085611142565b949350505050565b60008151835114610e7157600080fd5b82516000610e808260066116cb565b905060008167ffffffffffffffff811115610e9d57610e9d6113e7565b604051908082528060200260200182016040528015610ec6578160200160208202803683370190505b50905060005b8381101561110157868181518110610ee657610ee6611641565b60200260200101516000015182826006610f0091906116cb565b610f0b906000611629565b81518110610f1b57610f1b611641565b602002602001018181525050868181518110610f3957610f39611641565b60200260200101516020015182826006610f5391906116cb565b610f5e906001611629565b81518110610f6e57610f6e611641565b602002602001018181525050858181518110610f8c57610f8c611641565b60209081029190910181015151015182610fa78360066116cb565b610fb2906002611629565b81518110610fc257610fc2611641565b602002602001018181525050858181518110610fe057610fe0611641565b6020908102919091010151515182610ff98360066116cb565b611004906003611629565b8151811061101457611014611641565b60200260200101818152505085818151811061103257611032611641565b60200260200101516020015160016002811061105057611050611641565b6020020151826110618360066116cb565b61106c906004611629565b8151811061107c5761107c611641565b60200260200101818152505085818151811061109a5761109a611641565b6020026020010151602001516000600281106110b8576110b8611641565b6020020151826110c98360066116cb565b6110d4906005611629565b815181106110e4576110e4611641565b6020908102919091010152806110f981611657565b915050610ecc565b5061110a61136d565b6000602082602086026020860160086107d05a03fa9050808061112957fe5b508061113457600080fd5b505115159695505050505050565b6060824710156111a35760405162461bcd60e51b815260206004820152602660248201527f416464726573733a20696e73756666696369656e742062616c616e636520666f6044820152651c8818d85b1b60d21b60648201526084016101bc565b600080866001600160a01b031685876040516111bf919061171a565b60006040518083038185875af1925050503d80600081146111fc576040519150601f19603f3d011682016040523d82523d6000602084013e611201565b606091505b50915091506112128783838761121d565b979650505050505050565b6060831561128c578251600003611285576001600160a01b0385163b6112855760405162461bcd60e51b815260206004820152601d60248201527f416464726573733a2063616c6c20746f206e6f6e2d636f6e747261637400000060448201526064016101bc565b5081610e59565b610e5983838151156112a15781518083602001fd5b8060405162461bcd60e51b81526004016101bc9190611736565b6040805160e08101909152600060a0820181815260c08301919091528152602081016112e5611348565b81526020016112f2611348565b81526020016112ff611348565b8152602001606081525090565b60405180606001604052806003906020820280368337509192915050565b60405180608001604052806004906020820280368337509192915050565b604051806040016040528061135b61138b565b815260200161136861138b565b905290565b60405180602001604052806001906020820280368337509192915050565b60405180604001604052806002906020820280368337509192915050565b80356001600160a01b03811681146113c057600080fd5b919050565b6000602082840312156113d757600080fd5b6113e0826113a9565b9392505050565b634e487b7160e01b600052604160045260246000fd5b6040805190810167ffffffffffffffff81118282101715611420576114206113e7565b60405290565b60006040828403121561143857600080fd5b6040516040810181811067ffffffffffffffff8211171561145b5761145b6113e7565b604052823581526020928301359281019290925250919050565b600082601f83011261148657600080fd5b61148e6113fd565b8060408401858111156114a057600080fd5b845b818110156114ba5780358452602093840193016114a2565b509095945050505050565b60008183036101008112156114d957600080fd5b6040516060810181811067ffffffffffffffff821117156114fc576114fc6113e7565b60405291508161150c8585611426565b81526080603f198301121561152057600080fd5b6115286113fd565b91506115378560408601611475565b82526115468560808601611475565b602083015281602082015261155e8560c08601611426565b6040820152505092915050565b6000806000610140848603121561158157600080fd5b61158b85856114c5565b925061159a61010085016113a9565b915061012084013590509250925092565b600061010082840312156115be57600080fd5b6113e083836114c5565b6020808252602b908201527f496e697469616c697a61626c653a20636f6e7472616374206973206e6f74206960408201526a6e697469616c697a696e6760a81b606082015260800190565b634e487b7160e01b600052601160045260246000fd5b6000821982111561163c5761163c611613565b500190565b634e487b7160e01b600052603260045260246000fd5b60006001820161166957611669611613565b5060010190565b60006020828403121561168257600080fd5b815180151581146113e057600080fd5b6000826116af57634e487b7160e01b600052601260045260246000fd5b500690565b6000828210156116c6576116c6611613565b500390565b60008160001904831182151516156116e5576116e5611613565b500290565b60005b838110156117055781810151838201526020016116ed565b83811115611714576000848401525b50505050565b6000825161172c8184602087016116ea565b9190910192915050565b60208152600082518060208401526117558160408501602087016116ea565b601f01601f1916919091016040019291505056fea26469706673582212204c877f5db9f9224725eb36afe92101e9d8b7f3e5333bf4b5f7ae382a87222a8664736f6c634300080e0033",
  "devdoc": {
    "author": "eludius18",
    "kind": "dev",
    "methods": {
      "owner()": {
        "details": "Returns the address of the current owner."
      },
      "paused()": {
        "details": "Returns true if the contract is paused, and false otherwise."
      },
      "renounceOwnership()": {
        "details": "Leaves the contract without owner. It will not be possible to call `onlyOwner` functions anymore. Can only be called by the current owner. NOTE: Renouncing ownership will leave the contract without an owner, thereby removing any functionality that is only available to the owner."
      },
      "transferOwnership(address)": {
        "details": "Transfers ownership of the contract to a new account (`newOwner`). Can only be called by the current owner."
      }
    },
    "title": "Bank Transfer Smart Contract",
    "version": 1
  },
  "userdoc": {
    "kind": "user",
    "methods": {
      "zkTransfer(((uint256,uint256),(uint256[2],uint256[2]),(uint256,uint256)),address,uint256)": {
        "notice": "Enter function to send ETH"
      }
    },
    "notice": "This Smart Contract allow to transfer tokens",
    "version": 1
  },
  "storageLayout": {
    "storage": [
      {
        "astId": 138,
        "contract": "contracts/ZKERC20Transfer.sol:zkERC20Transfer",
        "label": "_initialized",
        "offset": 0,
        "slot": "0",
        "type": "t_uint8"
      },
      {
        "astId": 141,
        "contract": "contracts/ZKERC20Transfer.sol:zkERC20Transfer",
        "label": "_initializing",
        "offset": 1,
        "slot": "0",
        "type": "t_bool"
      },
      {
        "astId": 1857,
        "contract": "contracts/ZKERC20Transfer.sol:zkERC20Transfer",
        "label": "__gap",
        "offset": 0,
        "slot": "1",
        "type": "t_array(t_uint256)50_storage"
      },
      {
        "astId": 10,
        "contract": "contracts/ZKERC20Transfer.sol:zkERC20Transfer",
        "label": "_owner",
        "offset": 0,
        "slot": "51",
        "type": "t_address"
      },
      {
        "astId": 130,
        "contract": "contracts/ZKERC20Transfer.sol:zkERC20Transfer",
        "label": "__gap",
        "offset": 0,
        "slot": "52",
        "type": "t_array(t_uint256)49_storage"
      },
      {
        "astId": 441,
        "contract": "contracts/ZKERC20Transfer.sol:zkERC20Transfer",
        "label": "_status",
        "offset": 0,
        "slot": "101",
        "type": "t_uint256"
      },
      {
        "astId": 499,
        "contract": "contracts/ZKERC20Transfer.sol:zkERC20Transfer",
        "label": "__gap",
        "offset": 0,
        "slot": "102",
        "type": "t_array(t_uint256)49_storage"
      },
      {
        "astId": 321,
        "contract": "contracts/ZKERC20Transfer.sol:zkERC20Transfer",
        "label": "_paused",
        "offset": 0,
        "slot": "151",
        "type": "t_bool"
      },
      {
        "astId": 426,
        "contract": "contracts/ZKERC20Transfer.sol:zkERC20Transfer",
        "label": "__gap",
        "offset": 0,
        "slot": "152",
        "type": "t_array(t_uint256)49_storage"
      },
      {
        "astId": 3037,
        "contract": "contracts/ZKERC20Transfer.sol:zkERC20Transfer",
        "label": "erc20Contract",
        "offset": 0,
        "slot": "201",
        "type": "t_contract(IERC20Upgradeable)1190"
      }
    ],
    "types": {
      "t_address": {
        "encoding": "inplace",
        "label": "address",
        "numberOfBytes": "20"
      },
      "t_array(t_uint256)49_storage": {
        "base": "t_uint256",
        "encoding": "inplace",
        "label": "uint256[49]",
        "numberOfBytes": "1568"
      },
      "t_array(t_uint256)50_storage": {
        "base": "t_uint256",
        "encoding": "inplace",
        "label": "uint256[50]",
        "numberOfBytes": "1600"
      },
      "t_bool": {
        "encoding": "inplace",
        "label": "bool",
        "numberOfBytes": "1"
      },
      "t_contract(IERC20Upgradeable)1190": {
        "encoding": "inplace",
        "label": "contract IERC20Upgradeable",
        "numberOfBytes": "20"
      },
      "t_uint256": {
        "encoding": "inplace",
        "label": "uint256",
        "numberOfBytes": "32"
      },
      "t_uint8": {
        "encoding": "inplace",
        "label": "uint8",
        "numberOfBytes": "1"
      }
    }
  }
}