{
  "address": "0x531e1A6Ff492f1CB45fB79ffE3D9f0B89fF3031D",
  "abi": [
    {
      "inputs": [],
      "stateMutability": "nonpayable",
      "type": "constructor"
    },
    {
      "anonymous": false,
      "inputs": [
        {
          "indexed": false,
          "internalType": "uint8",
          "name": "version",
          "type": "uint8"
        }
      ],
      "name": "Initialized",
      "type": "event"
    },
    {
      "anonymous": false,
      "inputs": [
        {
          "indexed": true,
          "internalType": "address",
          "name": "previousOwner",
          "type": "address"
        },
        {
          "indexed": true,
          "internalType": "address",
          "name": "newOwner",
          "type": "address"
        }
      ],
      "name": "OwnershipTransferred",
      "type": "event"
    },
    {
      "anonymous": false,
      "inputs": [
        {
          "indexed": false,
          "internalType": "address",
          "name": "account",
          "type": "address"
        }
      ],
      "name": "Paused",
      "type": "event"
    },
    {
      "anonymous": false,
      "inputs": [
        {
          "indexed": false,
          "internalType": "address",
          "name": "account",
          "type": "address"
        }
      ],
      "name": "Unpaused",
      "type": "event"
    },
    {
      "inputs": [
        {
          "internalType": "address",
          "name": "erc20ContractAddress",
          "type": "address"
        }
      ],
      "name": "initialize",
      "outputs": [],
      "stateMutability": "nonpayable",
      "type": "function"
    },
    {
      "inputs": [],
      "name": "owner",
      "outputs": [
        {
          "internalType": "address",
          "name": "",
          "type": "address"
        }
      ],
      "stateMutability": "view",
      "type": "function"
    },
    {
      "inputs": [],
      "name": "paused",
      "outputs": [
        {
          "internalType": "bool",
          "name": "",
          "type": "bool"
        }
      ],
      "stateMutability": "view",
      "type": "function"
    },
    {
      "inputs": [],
      "name": "renounceOwnership",
      "outputs": [],
      "stateMutability": "nonpayable",
      "type": "function"
    },
    {
      "inputs": [
        {
          "internalType": "address",
          "name": "newOwner",
          "type": "address"
        }
      ],
      "name": "transferOwnership",
      "outputs": [],
      "stateMutability": "nonpayable",
      "type": "function"
    },
    {
      "inputs": [
        {
          "components": [
            {
              "components": [
                {
                  "internalType": "uint256",
                  "name": "X",
                  "type": "uint256"
                },
                {
                  "internalType": "uint256",
                  "name": "Y",
                  "type": "uint256"
                }
              ],
              "internalType": "struct Pairing.G1Point",
              "name": "a",
              "type": "tuple"
            },
            {
              "components": [
                {
                  "internalType": "uint256[2]",
                  "name": "X",
                  "type": "uint256[2]"
                },
                {
                  "internalType": "uint256[2]",
                  "name": "Y",
                  "type": "uint256[2]"
                }
              ],
              "internalType": "struct Pairing.G2Point",
              "name": "b",
              "type": "tuple"
            },
            {
              "components": [
                {
                  "internalType": "uint256",
                  "name": "X",
                  "type": "uint256"
                },
                {
                  "internalType": "uint256",
                  "name": "Y",
                  "type": "uint256"
                }
              ],
              "internalType": "struct Pairing.G1Point",
              "name": "c",
              "type": "tuple"
            }
          ],
          "internalType": "struct Verifier.Proof",
          "name": "proof",
          "type": "tuple"
        },
        {
          "internalType": "uint256[2]",
          "name": "input",
          "type": "uint256[2]"
        }
      ],
      "name": "userTransferApproval",
      "outputs": [
        {
          "internalType": "bool",
          "name": "",
          "type": "bool"
        }
      ],
      "stateMutability": "view",
      "type": "function"
    },
    {
      "inputs": [
        {
          "components": [
            {
              "components": [
                {
                  "internalType": "uint256",
                  "name": "X",
                  "type": "uint256"
                },
                {
                  "internalType": "uint256",
                  "name": "Y",
                  "type": "uint256"
                }
              ],
              "internalType": "struct Pairing.G1Point",
              "name": "a",
              "type": "tuple"
            },
            {
              "components": [
                {
                  "internalType": "uint256[2]",
                  "name": "X",
                  "type": "uint256[2]"
                },
                {
                  "internalType": "uint256[2]",
                  "name": "Y",
                  "type": "uint256[2]"
                }
              ],
              "internalType": "struct Pairing.G2Point",
              "name": "b",
              "type": "tuple"
            },
            {
              "components": [
                {
                  "internalType": "uint256",
                  "name": "X",
                  "type": "uint256"
                },
                {
                  "internalType": "uint256",
                  "name": "Y",
                  "type": "uint256"
                }
              ],
              "internalType": "struct Pairing.G1Point",
              "name": "c",
              "type": "tuple"
            }
          ],
          "internalType": "struct Verifier.Proof",
          "name": "proof",
          "type": "tuple"
        },
        {
          "internalType": "uint256[2]",
          "name": "input",
          "type": "uint256[2]"
        }
      ],
      "name": "verifyTx",
      "outputs": [
        {
          "internalType": "bool",
          "name": "r",
          "type": "bool"
        }
      ],
      "stateMutability": "view",
      "type": "function"
    },
    {
      "inputs": [
        {
          "components": [
            {
              "components": [
                {
                  "internalType": "uint256",
                  "name": "X",
                  "type": "uint256"
                },
                {
                  "internalType": "uint256",
                  "name": "Y",
                  "type": "uint256"
                }
              ],
              "internalType": "struct Pairing.G1Point",
              "name": "a",
              "type": "tuple"
            },
            {
              "components": [
                {
                  "internalType": "uint256[2]",
                  "name": "X",
                  "type": "uint256[2]"
                },
                {
                  "internalType": "uint256[2]",
                  "name": "Y",
                  "type": "uint256[2]"
                }
              ],
              "internalType": "struct Pairing.G2Point",
              "name": "b",
              "type": "tuple"
            },
            {
              "components": [
                {
                  "internalType": "uint256",
                  "name": "X",
                  "type": "uint256"
                },
                {
                  "internalType": "uint256",
                  "name": "Y",
                  "type": "uint256"
                }
              ],
              "internalType": "struct Pairing.G1Point",
              "name": "c",
              "type": "tuple"
            }
          ],
          "internalType": "struct Verifier.Proof",
          "name": "proof",
          "type": "tuple"
        },
        {
          "internalType": "uint256[2]",
          "name": "input",
          "type": "uint256[2]"
        },
        {
          "internalType": "address",
          "name": "to",
          "type": "address"
        },
        {
          "internalType": "uint256",
          "name": "value",
          "type": "uint256"
        }
      ],
      "name": "zkTransfer",
      "outputs": [],
      "stateMutability": "nonpayable",
      "type": "function"
    }
  ],
  "transactionHash": "0x1b1c46c1c80cfee23de1a7fb6c251749ebe43a110f892ffc536c53e013478c0b",
  "args": [],
  "numDeployments": 1,
  "solcInputHash": "c9ec6551680742bbeb31293c3d2a3040",
  "bytecode": "0x608060405234801561001057600080fd5b5061001961001e565b6100de565b600054610100900460ff161561008a5760405162461bcd60e51b815260206004820152602760248201527f496e697469616c697a61626c653a20636f6e747261637420697320696e697469604482015266616c697a696e6760c81b606482015260840160405180910390fd5b60005460ff90811610156100dc576000805460ff191660ff9081179091556040519081527f7f26b83ff96e1f2b6a682f133852f6798a09c465da95921460cefb38474024989060200160405180910390a15b565b61195b806100ed6000396000f3fe608060405234801561001057600080fd5b50600436106100885760003560e01c8063715018a61161005b578063715018a6146100e85780638da5cb5b146100f0578063c4d66de81461010b578063f2fde38b1461011e57600080fd5b80630b885e8d1461008d57806329308317146100a257806343cd76fc146100ca5780635c975abb146100dd575b600080fd5b6100a061009b3660046116de565b610131565b005b6100b56100b036600461172f565b6101c3565b60405190151581526020015b60405180910390f35b6100b56100d836600461172f565b6101d8565b60975460ff166100b5565b6100a0610275565b6033546040516001600160a01b0390911681526020016100c1565b6100a0610119366004611766565b610289565b6100a061012c366004611766565b6103be565b610139610437565b610141610490565b61014b84846101d8565b61019c5760405162461bcd60e51b815260206004820152601d60248201527f4d757374206265206174206c65617374203138207965617273206f6c6400000060448201526064015b60405180910390fd5b60c9546101b3906001600160a01b031683836104d6565b6101bd6001606555565b50505050565b60006101cf83836101d8565b90505b92915050565b6040805160028082526060820183526000928392919060208301908036833701905050905060005b600281101561024f5783816002811061021b5761021b611781565b602002015182828151811061023257610232611781565b602090810291909101015280610247816117ad565b915050610200565b5061025a818561052d565b60000361026b5760019150506101d2565b60009150506101d2565b61027d6106b0565b610287600061070a565b565b600054610100900460ff16158080156102a95750600054600160ff909116105b806102c35750303b1580156102c3575060005460ff166001145b6103265760405162461bcd60e51b815260206004820152602e60248201527f496e697469616c697a61626c653a20636f6e747261637420697320616c72656160448201526d191e481a5b9a5d1a585b1a5e995960921b6064820152608401610193565b6000805460ff191660011790558015610349576000805461ff0019166101001790555b60c980546001600160a01b0319166001600160a01b03841617905561036c61075c565b61037461078b565b80156103ba576000805461ff0019169055604051600181527f7f26b83ff96e1f2b6a682f133852f6798a09c465da95921460cefb38474024989060200160405180910390a15b5050565b6103c66106b0565b6001600160a01b03811661042b5760405162461bcd60e51b815260206004820152602660248201527f4f776e61626c653a206e6577206f776e657220697320746865207a65726f206160448201526564647265737360d01b6064820152608401610193565b6104348161070a565b50565b6002606554036104895760405162461bcd60e51b815260206004820152601f60248201527f5265656e7472616e637947756172643a207265656e7472616e742063616c6c006044820152606401610193565b6002606555565b60975460ff16156102875760405162461bcd60e51b815260206004820152601060248201526f14185d5cd8589b194e881c185d5cd95960821b6044820152606401610193565b604080516001600160a01b038416602482015260448082018490528251808303909101815260649091019091526020810180516001600160e01b031663a9059cbb60e01b1790526105289084906107ba565b505050565b60007f30644e72e131a029b85045b68181585d2833e84879b9709143e1f593f00000018161055961088c565b90508060800151518551600161056f91906117c6565b1461057957600080fd5b604080518082019091526000808252602082018190525b865181101561062757838782815181106105ac576105ac611781565b6020026020010151106105be57600080fd5b6106138261060e85608001518460016105d791906117c6565b815181106105e7576105e7611781565b60200260200101518a858151811061060157610601611781565b6020026020010151610c9e565b610cfc565b91508061061f816117ad565b915050610590565b5061065081836080015160008151811061064357610643611781565b6020026020010151610cfc565b90506106948560000151866020015161066884610d52565b856040015161067a8a60400151610d52565b6060880151885161068a90610d52565b8960200151610df1565b6106a457600193505050506101d2565b50600095945050505050565b6033546001600160a01b031633146102875760405162461bcd60e51b815260206004820181905260248201527f4f776e61626c653a2063616c6c6572206973206e6f7420746865206f776e65726044820152606401610193565b603380546001600160a01b038381166001600160a01b0319831681179093556040519116919082907f8be0079c531659141344cd1fd0a4f28419497f9722a3daafe3b4186f6b6457e090600090a35050565b600054610100900460ff166107835760405162461bcd60e51b8152600401610193906117de565b610287610f7c565b600054610100900460ff166107b25760405162461bcd60e51b8152600401610193906117de565b610287610fac565b600061080f826040518060400160405280602081526020017f5361666545524332303a206c6f772d6c6576656c2063616c6c206661696c6564815250856001600160a01b0316610fdf9092919063ffffffff16565b805190915015610528578080602001905181019061082d9190611829565b6105285760405162461bcd60e51b815260206004820152602a60248201527f5361666545524332303a204552433230206f7065726174696f6e20646964206e6044820152691bdd081cdd58d8d9595960b21b6064820152608401610193565b610894611450565b6040805180820182527f2672f9fa9b0ca337fd0854852e04f985a5b04004c68048479cb69502c853ed6d81527f02374ba87ca973fa63b40d2a34b2d44f98170972ef1e9d4476fcc5c983cd18bb6020808301919091529083528151608080820184527f013c3eb1e0ed7a7ec1ac37e9cd9934ae327b333185b716a7fd8613580bf47e5d8285019081527f268ae2d6c6d01aa6deba34c1faa0365c445f92c09555d48d654e5a5ec18492f7606080850191909152908352845180860186527f26e32ffe8512b04483c0c019f975353c35790590407af01390a44b2f070d4a5781527f01de6078986f9e533393cd59f794964d1a46cdb1d54c951800a96ead71bf87ad818601528385015285840192909252835180820185527f06e00bbd1354b9eef0470f0108188f7450ef6541a925e80376b2a25b989f2dcb8186019081527e7476016011721b878ab57a02142f0be243b7b18f26cd18edfe34a293a7bba0828501528152845180860186527f242ee122ecee51a8dd50c258cc99b81b0a3341ab23c9015cbb5b5cb246de948e81527f16c243fa7f54e616736f28e975d699e11442b92200001ed4c1e07c7a4dce3732818601528185015285850152835180820185527f0c9cfb22dd48f389dd1633e9ad0469b5b2f09e69f817bac8d4b5826ad932b2fc8186019081527f11640a39efa2942d2943627b902d86bdd459493b3a8aed9685534bce0eec0af5828501528152845180860186527f265c83888329e703e9ce2fa076e718bb7c39871da27d4756e28b22655f12bd6f81527f2b55cfb1cedd2aed85450192d8b4d4a36594e1222e08cd53a81ec2d453538e55818601528185015291850191909152825160038082529181019093529082015b6040805180820190915260008082526020820152815260200190600190039081610b0f57505060808201908152604080518082019091527f22e224fae14cb613831db7206f1c943719fa90bbefbb2e53eb7a300d3114baac81527f2b78a6609bbfac37e7be62ed522188d5090a107ba67105e295341f07cc7dd127602082015290518051600090610ba257610ba2611781565b602002602001018190525060405180604001604052807f152f51b266f46357e1aca86a2e30a0c058b1020f6ee217fb3f38247470e5535c81526020017f1b47ac7f17ef12175f33f19e7a60a8924cf1fc330e1988b53a9e875bee63cea18152508160800151600181518110610c1957610c19611781565b602002602001018190525060405180604001604052807f22f1503a8701e03304db850d0eaaa37121ed01948da0846e8866c338b47ba1b781526020017f08b0ac635947e99d141d7875eab3266ff09c6f805598093a66e8838f5c1433ec8152508160800151600281518110610c9057610c90611781565b602002602001018190525090565b6040805180820190915260008082526020820152610cba6114a1565b835181526020808501519082015260408101839052600060608360808460076107d05a03fa90508080610ce957fe5b5080610cf457600080fd5b505092915050565b6040805180820190915260008082526020820152610d186114bf565b8351815260208085015181830152835160408301528301516060808301919091526000908360c08460066107d05a03fa90508080610ce957fe5b604080518082019091526000808252602082015281517f30644e72e131a029b85045b68181585d97816a916871ca8d3c208c16d87cfd4790158015610d9957506020830151155b15610db95750506040805180820190915260008082526020820152919050565b604051806040016040528084600001518152602001828560200151610dde9190611852565b610de89084611874565b90529392505050565b60408051600480825260a08201909252600091829190816020015b6040805180820190915260008082526020820152815260200190600190039081610e0c57505060408051600480825260a0820190925291925060009190602082015b610e566114dd565b815260200190600190039081610e4e5790505090508a82600081518110610e7f57610e7f611781565b60200260200101819052508882600181518110610e9e57610e9e611781565b60200260200101819052508682600281518110610ebd57610ebd611781565b60200260200101819052508482600381518110610edc57610edc611781565b60200260200101819052508981600081518110610efb57610efb611781565b60200260200101819052508781600181518110610f1a57610f1a611781565b60200260200101819052508581600281518110610f3957610f39611781565b60200260200101819052508381600381518110610f5857610f58611781565b6020026020010181905250610f6d8282610ff6565b9b9a5050505050505050505050565b600054610100900460ff16610fa35760405162461bcd60e51b8152600401610193906117de565b6102873361070a565b600054610100900460ff16610fd35760405162461bcd60e51b8152600401610193906117de565b6097805460ff19169055565b6060610fee84846000856112d7565b949350505050565b6000815183511461100657600080fd5b8251600061101582600661188b565b905060008167ffffffffffffffff8111156110325761103261153e565b60405190808252806020026020018201604052801561105b578160200160208202803683370190505b50905060005b838110156112965786818151811061107b5761107b611781565b60200260200101516000015182826006611095919061188b565b6110a09060006117c6565b815181106110b0576110b0611781565b6020026020010181815250508681815181106110ce576110ce611781565b602002602001015160200151828260066110e8919061188b565b6110f39060016117c6565b8151811061110357611103611781565b60200260200101818152505085818151811061112157611121611781565b6020908102919091018101515101518261113c83600661188b565b6111479060026117c6565b8151811061115757611157611781565b60200260200101818152505085818151811061117557611175611781565b602090810291909101015151518261118e83600661188b565b6111999060036117c6565b815181106111a9576111a9611781565b6020026020010181815250508581815181106111c7576111c7611781565b6020026020010151602001516001600281106111e5576111e5611781565b6020020151826111f683600661188b565b6112019060046117c6565b8151811061121157611211611781565b60200260200101818152505085818151811061122f5761122f611781565b60200260200101516020015160006002811061124d5761124d611781565b60200201518261125e83600661188b565b6112699060056117c6565b8151811061127957611279611781565b60209081029190910101528061128e816117ad565b915050611061565b5061129f611502565b6000602082602086026020860160086107d05a03fa905080806112be57fe5b50806112c957600080fd5b505115159695505050505050565b6060824710156113385760405162461bcd60e51b815260206004820152602660248201527f416464726573733a20696e73756666696369656e742062616c616e636520666f6044820152651c8818d85b1b60d21b6064820152608401610193565b600080866001600160a01b0316858760405161135491906118d6565b60006040518083038185875af1925050503d8060008114611391576040519150601f19603f3d011682016040523d82523d6000602084013e611396565b606091505b50915091506113a7878383876113b2565b979650505050505050565b6060831561142157825160000361141a576001600160a01b0385163b61141a5760405162461bcd60e51b815260206004820152601d60248201527f416464726573733a2063616c6c20746f206e6f6e2d636f6e74726163740000006044820152606401610193565b5081610fee565b610fee83838151156114365781518083602001fd5b8060405162461bcd60e51b815260040161019391906118f2565b6040805160e08101909152600060a0820181815260c083019190915281526020810161147a6114dd565b81526020016114876114dd565b81526020016114946114dd565b8152602001606081525090565b60405180606001604052806003906020820280368337509192915050565b60405180608001604052806004906020820280368337509192915050565b60405180604001604052806114f0611520565b81526020016114fd611520565b905290565b60405180602001604052806001906020820280368337509192915050565b60405180604001604052806002906020820280368337509192915050565b634e487b7160e01b600052604160045260246000fd5b6040805190810167ffffffffffffffff811182821017156115775761157761153e565b60405290565b60006040828403121561158f57600080fd5b6040516040810181811067ffffffffffffffff821117156115b2576115b261153e565b604052823581526020928301359281019290925250919050565b600082601f8301126115dd57600080fd5b6115e5611554565b8060408401858111156115f757600080fd5b845b818110156116115780358452602093840193016115f9565b509095945050505050565b600081830361010081121561163057600080fd5b6040516060810181811067ffffffffffffffff821117156116535761165361153e565b604052915081611663858561157d565b81526080603f198301121561167757600080fd5b61167f611554565b915061168e85604086016115cc565b825261169d85608086016115cc565b60208301528160208201526116b58560c0860161157d565b6040820152505092915050565b80356001600160a01b03811681146116d957600080fd5b919050565b60008060008061018085870312156116f557600080fd5b6116ff868661161c565b935061170f8661010087016115cc565b925061171e61014086016116c2565b939692955092936101600135925050565b600080610140838503121561174357600080fd5b61174d848461161c565b915061175d8461010085016115cc565b90509250929050565b60006020828403121561177857600080fd5b6101cf826116c2565b634e487b7160e01b600052603260045260246000fd5b634e487b7160e01b600052601160045260246000fd5b6000600182016117bf576117bf611797565b5060010190565b600082198211156117d9576117d9611797565b500190565b6020808252602b908201527f496e697469616c697a61626c653a20636f6e7472616374206973206e6f74206960408201526a6e697469616c697a696e6760a81b606082015260800190565b60006020828403121561183b57600080fd5b8151801515811461184b57600080fd5b9392505050565b60008261186f57634e487b7160e01b600052601260045260246000fd5b500690565b60008282101561188657611886611797565b500390565b60008160001904831182151516156118a5576118a5611797565b500290565b60005b838110156118c55781810151838201526020016118ad565b838111156101bd5750506000910152565b600082516118e88184602087016118aa565b9190910192915050565b60208152600082518060208401526119118160408501602087016118aa565b601f01601f1916919091016040019291505056fea264697066735822122033e1c2c152fba8d70c07a9e532fabda71a5725889d8f23ec4adaf0be4b51969664736f6c634300080e0033",
  "devdoc": {
    "author": "eludius18",
    "kind": "dev",
    "methods": {
      "owner()": {
        "details": "Returns the address of the current owner."
      },
      "paused()": {
        "details": "Returns true if the contract is paused, and false otherwise."
      },
      "renounceOwnership()": {
        "details": "Leaves the contract without owner. It will not be possible to call `onlyOwner` functions anymore. Can only be called by the current owner. NOTE: Renouncing ownership will leave the contract without an owner, thereby removing any functionality that is only available to the owner."
      },
      "transferOwnership(address)": {
        "details": "Transfers ownership of the contract to a new account (`newOwner`). Can only be called by the current owner."
      }
    },
    "title": "Bank Transfer Smart Contract",
    "version": 1
  },
  "userdoc": {
    "kind": "user",
    "methods": {
      "zkTransfer(((uint256,uint256),(uint256[2],uint256[2]),(uint256,uint256)),uint256[2],address,uint256)": {
        "notice": "Enter function to send ETH"
      }
    },
    "notice": "This Smart Contract allow to transfer tokens",
    "version": 1
  },
  "storageLayout": {
    "storage": [
      {
        "astId": 138,
        "contract": "contracts/ZKERC20Transfer.sol:zkERC20Transfer",
        "label": "_initialized",
        "offset": 0,
        "slot": "0",
        "type": "t_uint8"
      },
      {
        "astId": 141,
        "contract": "contracts/ZKERC20Transfer.sol:zkERC20Transfer",
        "label": "_initializing",
        "offset": 1,
        "slot": "0",
        "type": "t_bool"
      },
      {
        "astId": 1220,
        "contract": "contracts/ZKERC20Transfer.sol:zkERC20Transfer",
        "label": "__gap",
        "offset": 0,
        "slot": "1",
        "type": "t_array(t_uint256)50_storage"
      },
      {
        "astId": 10,
        "contract": "contracts/ZKERC20Transfer.sol:zkERC20Transfer",
        "label": "_owner",
        "offset": 0,
        "slot": "51",
        "type": "t_address"
      },
      {
        "astId": 130,
        "contract": "contracts/ZKERC20Transfer.sol:zkERC20Transfer",
        "label": "__gap",
        "offset": 0,
        "slot": "52",
        "type": "t_array(t_uint256)49_storage"
      },
      {
        "astId": 441,
        "contract": "contracts/ZKERC20Transfer.sol:zkERC20Transfer",
        "label": "_status",
        "offset": 0,
        "slot": "101",
        "type": "t_uint256"
      },
      {
        "astId": 499,
        "contract": "contracts/ZKERC20Transfer.sol:zkERC20Transfer",
        "label": "__gap",
        "offset": 0,
        "slot": "102",
        "type": "t_array(t_uint256)49_storage"
      },
      {
        "astId": 321,
        "contract": "contracts/ZKERC20Transfer.sol:zkERC20Transfer",
        "label": "_paused",
        "offset": 0,
        "slot": "151",
        "type": "t_bool"
      },
      {
        "astId": 426,
        "contract": "contracts/ZKERC20Transfer.sol:zkERC20Transfer",
        "label": "__gap",
        "offset": 0,
        "slot": "152",
        "type": "t_array(t_uint256)49_storage"
      },
      {
        "astId": 2360,
        "contract": "contracts/ZKERC20Transfer.sol:zkERC20Transfer",
        "label": "erc20Contract",
        "offset": 0,
        "slot": "201",
        "type": "t_contract(IERC20Upgradeable)578"
      }
    ],
    "types": {
      "t_address": {
        "encoding": "inplace",
        "label": "address",
        "numberOfBytes": "20"
      },
      "t_array(t_uint256)49_storage": {
        "base": "t_uint256",
        "encoding": "inplace",
        "label": "uint256[49]",
        "numberOfBytes": "1568"
      },
      "t_array(t_uint256)50_storage": {
        "base": "t_uint256",
        "encoding": "inplace",
        "label": "uint256[50]",
        "numberOfBytes": "1600"
      },
      "t_bool": {
        "encoding": "inplace",
        "label": "bool",
        "numberOfBytes": "1"
      },
      "t_contract(IERC20Upgradeable)578": {
        "encoding": "inplace",
        "label": "contract IERC20Upgradeable",
        "numberOfBytes": "20"
      },
      "t_uint256": {
        "encoding": "inplace",
        "label": "uint256",
        "numberOfBytes": "32"
      },
      "t_uint8": {
        "encoding": "inplace",
        "label": "uint8",
        "numberOfBytes": "1"
      }
    }
  }
}